:020000040000FA
:0400000080310B2818
:100008007E1480318031802080317E10090080315B
:100018000D28F301F4017E1040018031372840019A
:10002800980199019A013F309200F0309300FF3017
:100038009400FF307E01CE00F030C3003730B800A6
:10004800C401B901CF01BA01C501D0013730BB00E5
:10005800F030C600FF30D1003F30BC00F030C700A0
:10006800FF30D20008008031652080314001121134
:10007800181503104001181D0314031844284728B5
:10008800400118154928400118110430F200CF30FA
:10009800F1000230890B4E28F10B4E28F20B4E2846
:1000A8003D2880310B284E018D1C5B285C28642874
:1000B8008D1080316F208031F0007008F300F41447
:1000C800080080311320803180317B2080318031DD
:1000D80084208031080080317520803143010C086C
:1000E800080043010F1C79287A2875280800510157
:1000F8009101930192010800803157208031080056
:0601080050018C0108000B
:020000040001F9
:04000E00EF3FE73F9A
:04001400FF3FFF3F6C
:00000001FF
